:020000040800F2
:1000000000280020D9100008990F00089F0F000851
:10001000A50F0008AB0F0008B10F0008000000009A
:10002000000000000000000000000000B70F000802
:10003000C30F000800000000CF0F0008DB0F00080E
:1000400021110008211100082111000821110008C8
:1000500021110008211100082111000821110008B8
:1000600021110008211100082111000821110008A8
:100070002111000821110008211100082111000898
:100080002111000821110008211100082111000888
:100090002111000821110008211100082111000878
:1000A0002111000821110008211100082111000868
:1000B000E90F0008211100080000000021110008CC
:1000C00021110008000000000000000021110008BC
:1000D00000000000211100082111000800000000AC
:1000E0002111000821110008211100080000000062
:1000F0000000000000000000000000000000000000
:0C01000000000000000000005FF808F1A3
:10010C0010B5054C237833B9044B13B10448AFF345
:10011C0000800123237010BD180000200000000097
:10012C007827000808B5034B1BB103490348AFF30C
:10013C00008008BD000000001C000020782700088B
:10014C0080B582B000AF0346FB71FB79002B05D163
:10015C0080210F4801F0CAFA034614E0FB79012B09
:10016C0006D14FF480710A4801F0C0FA03460AE048
:10017C00FB79022B06D14FF40071054801F0B6FA59
:10018C00034600E0002318460837BD4680BD00BF7B
:10019C00000C014090B583B000AF0023FB7142E02E
:1001AC00FA79FB792449895C244AD154FC79FB798E
:1001BC001846FFF7C5FF03461A461F4B1A55FB7925
:1001CC001D4AD25CFB791D49CB5C9A4228D1FA7945
:1001DC00FB791949895C1A4AD154FB79184AD35CCA
:1001EC00012B14D1FB79174A32F81330632B09D841
:1001FC00FB79144A32F81320013291B2114A22F8D9
:10020C0013100DE0FB79104A0121D15408E0FB7961
:10021C000C4A002122F81310FB790B4A0021D1540F
:10022C00FB790133FB71FB79022BB9D900BF00BFFD
:10023C000C37BD4690BD00BF3C00002038000020AC
:10024C0034000020440000204000002080B483B023
:10025C0000AF0346FB71FB79022B01D9002307E0A9
:10026C00FB79064AD35C012B0CBF01230023DBB2C4
:10027C0018460C37BD4680BC704700BF34000020C8
:10028C0080B483B000AF0346FB71FB79022B01D91C
:10029C00002302E0FB79034AD35C18460C37BD46B9
:1002AC0080BC70474000002080B500AF194B1B7814
:1002BC00002B02D0012B1AD029E00020FFF7C6FF3B
:1002CC000346002B20D000F0FFFC134B1B78022BB5
:1002DC0004D8114B1B780133DBB200E000230E4A2B
:1002EC00137000F091FA0B4B01221A700CE00020F5
:1002FC00FFF7ACFF034683F00103DBB2002B05D004
:10030C00044B00221A7001E000BF00E000BF00BFE8
:10031C0080BD00BF4C0000207600002080B500AFEF
:10032C00294B5B78022B2DD0022B43DC002B02D007
:10033C00012B0CD03EE00120FFF788FF0346002B79
:10034C003AD000F0B5FA204B01225A7034E001206B
:10035C00FFF77CFF034683F00103DBB2002B03D0D5
:10036C00194B00225A7029E00120FFF789FF034640
:10037C00002B23D0FA21032000F040FE124B022266
:10038C005A701BE00120FFF761FF034683F0010365
:10039C00DBB2002B03D00C4B00225A7010E00B4B3D
:1003AC00DB78002B0CD000F083FAFA21032000F04C
:1003BC0025FE05E000BF04E000BF02E000BF00E046
:1003CC0000BF00BF80BD00BF4C000020C00000205B
:1003DC0080B500AF124B9B78002B02D0012B0CD0B8
:1003EC001BE00220FFF732FF0346002B12D000F077
:1003FC009BFA0B4B01229A700CE00220FFF726FFB0
:10040C00034683F00103DBB2002B05D0044B002222
:10041C009A7001E000BF00E000BF00BF80BD00BFCC
:10042C004C00002080B582B000AF0346FB71FB7915
:10043C00012B00F22681FB799B4AD35C052B00F241
:10044C00228101A252F823F06D040008C9040008AF
:10045C002505000881050008DB05000835060008A5
:10046C00002000F099FB914B1978FB79904AD25CF3
:10047C00FB798A1AD1B28F4AD1548F4B1B78002B3F
:10048C0000F00381FB798A4AD25C0132D1B2884AEE
:10049C00D154FB79864AD25C844B1B789A4207D1A3
:1004AC00FB79834A0021D154FB797F4A0221D15434
:1004BC004FF47A71002000F0A1FDE6E0012000F07D
:1004CC006BFB7A4B5978FB79794AD25CFB798A1AA7
:1004DC00D1B2784AD154784B1B78002B00F0D780DE
:1004EC00FB79734AD25C0132D1B2714AD154FB7997
:1004FC006F4AD25C6D4B5B789A4207D1FB796C4AA0
:10050C000021D154FB79684A0021D1544FF47A71FF
:10051C00002000F073FDBAE0022000F03DFB634BBD
:10052C009978FB79624AD25CFB798A1AD1B2614A1A
:10053C00D154614B1B78002B00F0AB80FB795C4AEB
:10054C00D25C0132D1B25A4AD154FB79584AD25CAE
:10055C00564B9B789A4207D1FB79554A0021D154CE
:10056C00FB79514A0121D1544FF47A71002000F0EB
:10057C0045FD8EE0032000F00FFB4C4B1978FB7906
:10058C004B4AD25CFB798A1AD1B24A4AD1544A4BB3
:10059C005B78002B7FD0FB79454AD25C0132D1B21B
:1005AC00434AD154FB79424AD25C404B1B789A4265
:1005BC0007D1FB793E4A0021D154FB793A4A0521F7
:1005CC00D1544FF47A71012000F018FD63E004203F
:1005DC0000F0E2FA354B5978FB79354AD25CFB795D
:1005EC008A1AD1B2334AD154334B5B78002B54D096
:1005FC00FB792F4AD25C0132D1B22D4AD154FB790E
:10060C002B4AD25C294B5B789A4207D1FB79284A5A
:10061C000021D154FB79244A0321D1544FF47A712F
:10062C00012000F0EBFC38E0052000F0B5FA1F4B80
:10063C009978FB791E4AD25CFB798A1AD1B21D4A91
:10064C00D1541D4B5B78002B29D0FB79184AD25C16
:10065C000132D1B2164AD154FB79154AD25C134BF4
:10066C009B789A4207D1FB79114A0021D154FB792E
:10067C000D4A0421D1544FF47A71012000F0BEFCD4
:10068C000DE000BF0CE000BF0AE000BF08E000BFB7
:10069C0006E000BF04E000BF02E000BF00E000BFC6
:1006AC000837BD4680BD00BF50000020540000201C
:1006BC00600000205C000020C000002080B500AF6E
:1006CC004FF47A71002000F099FC4FF47A710120FC
:1006DC0000F094FC0A21042000F090FC094B00224D
:1006EC001A70094B05221A70074B02225A70064BDE
:1006FC0003229A70054B00221A70044B05225A7083
:10070C0000BF80BD76000020540000205000002067
:10071C0080B500AF304B1B78032B59D801A252F88F
:10072C0023F000BF410700085F0700088907000895
:10073C00B30700080020FFF775FE0120FFF772FEDB
:10074C00264B1B78254A52781146184600F0E8F9DA
:10075C003FE0234B9B78002B09D0002000F07AFA65
:10076C00032000F077FAFA21022000F047FC1D4B21
:10077C001B780221184600F0D3F92AE0184B9B781D
:10078C00002B09D0012000F065FA042000F062FA79
:10079C00FA21022000F032FC124B5B780321184640
:1007AC0000F0BEF915E00E4B9B78002B09D002200F
:1007BC0000F050FA052000F04DFAFA21022000F06A
:1007CC001DFC084B9B780421184600F0A9F900E0A9
:1007DC0000BF00BF80BD00BF760000205C00002081
:1007EC00C00000205800002080B500AF054B1B79DD
:1007FC00002B05D000F072F9FA21042000F0FEFB6A
:10080C0000BF80BDC000002080B500AF234B1B781B
:10081C00002B1AD1224B00221A70214B05225A7040
:10082C004FF47A71002000F0E9FB4FF47A7101204B
:10083C0000F0E4FB0A21042000F0E0FB194B00223D
:10084C001A70184B00225A7025E0144B1B78012BA0
:10085C0008D1FA21022000F0D1FB134B1A78134B6C
:10086C001A7018E00D4B1B78022B08D1FA210220CC
:10087C0000F0C4FB0C4B5A780C4B5A700BE0074B36
:10088C001B78032B07D1FA21022000F0B7FB064B93
:10089C009A78064B9A7000BF80BD00BF760000208E
:1008AC005000002060000020540000205800002060
:1008BC0080B400AF1A4B1B78012B0CD1194B1B7851
:1008CC00622B04D8174B1B780133DBB200E00023FA
:1008DC00144A137020E0124B1B78022B0CD1114BD5
:1008EC005B78622B04D80F4B5B780133DBB200E0F2
:1008FC0000230C4A53700FE0094B1B78032B0BD1D0
:10090C00084B9B78622B04D8064B9B780133DBB2E7
:10091C0000E00023034A937000BFBD4680BC7047C3
:10092C00760000205800002080B400AF0E4B1B78DE
:10093C00012B04D10D4B1A780D4B1A7010E00A4B99
:10094C001B78022B04D1094B5A78094B5A7007E0DB
:10095C00054B1B78032B03D1044B9A78044B9A70EC
:10096C0000BFBD4680BC70477600002058000020B8
:10097C005400002080B582B000AF0346FB71FB79B8
:10098C00092B59D8FB792E4AD35C9B11DBB203F0AF
:10099C000103DBB21A4601212A4800F0BEFEFB79A6
:1009AC00274AD35C5B11DBB203F00103DBB21A46BE
:1009BC000221244800F0B1FEFB79214AD35C1B11C3
:1009CC00DBB203F00103DBB21A4604211D4800F030
:1009DC00A4FEFB791A4AD35CDB10DBB203F00103F3
:1009EC00DBB21A460821174800F097FEFB79144A2F
:1009FC00D35C9B10DBB203F00103DBB21A4610216F
:100A0C00104800F08AFEFB790D4AD35C5B10DBB218
:100A1C0003F00103DBB21A4620210A4800F07DFEE8
:100A2C00FB79074AD35C03F00103DBB21A46402181
:100A3C00044800F072FE00E000BF0837BD4680BDE0
:100A4C0000000020000C014080B582B000AF0346CE
:100A5C00FB71FB79002B0BD1002280211E4800F08A
:100A6C005CFE01224FF4E0611B4800F056FE2EE0C4
:100A7C00FB79012B0CD100224FF48071164800F049
:100A8C004CFE01224FF4D061134800F046FE1EE0EC
:100A9C00FB79022B0CD100224FF400710E4800F0B0
:100AAC003CFE01224FF4B0610B4800F036FE0EE024
:100ABC00FB79032B0BD100224FF48061064800F028
:100ACC002CFE01224FF46071034800F026FE00BF9B
:100ADC000837BD4680BD00BF0008014080B500AF9F
:100AEC000D4B1B781846FFF7AFFF0B4B1B781A46C4
:100AFC000A4B9B5C1846FFF73DFF074B1B78022BFC
:100B0C0004D8054B1B780133DBB200E00023024A0A
:100B1C00137000BF80BD00BF68000020640000207F
:100B2C0080B483B000AF03460A46FB711346BB7119
:100B3C00FB79174AA2FB0323DB08DAB2154B1A70B8
:100B4C00FA79134BA3FB0213D9080B469B000B44F9
:100B5C005B00D31ADAB20F4B5A70BB790C4AA2FB6A
:100B6C000323DB08DAB20B4B9A70BA79084BA3FB60
:100B7C000213D9080B469B000B445B00D31ADAB264
:100B8C00044BDA7000BF0C37BD4680BC704700BF09
:100B9C00CDCCCCCC6400002080B582B000AF034635
:100BAC00FB71FB79002B0AD100220221284800F0AE
:100BBC00B4FD01220C21264800F0AFFD44E0FB7986
:100BCC00012B0AD100220421214800F0A6FD0122AC
:100BDC000A211F4800F0A1FD36E0FB79022B0AD157
:100BEC00002208211A4800F098FD0122062118481D
:100BFC0000F093FD28E0FB79032B0AD10022102191
:100C0C00134800F08AFD01226021114800F085FD97
:100C1C001AE0FB79042B0AD1002220210C4800F0A9
:100C2C007CFD012250210A4800F077FD0CE0FB7995
:100C3C00052B09D100224021054800F06EFD012250
:100C4C003021034800F069FD00BF0837BD4680BD68
:100C5C000008014080B582B000AF0346FB71FB7900
:100C6C00002B04D10221174800F06FFD26E0FB7920
:100C7C00012B04D10421134800F067FD1EE0FB7921
:100C8C00022B04D108210F4800F05FFD16E0FB7920
:100C9C00032B04D110210B4800F057FD0EE0FB791B
:100CAC00042B04D12021074800F04FFD06E0FB790E
:100CBC00052B03D14021034800F047FD00BF083746
:100CCC00BD4680BD0008014080B500AF01227E21E9
:100CDC00024800F022FD00BF80BD00BF00080140AB
:100CEC0080B500AF00F018FA00F016F800F09CF890
:100CFC0000F04EF8074801F079F9FFF7DFFCFFF739
:100D0C0007FDFFF771FDFFF7CFFAFFF707FBFFF7C2
:100D1C005FFBF4E77800002080B590B000AF07F1DE
:100D2C00180328220021184601F018FD3B1D002253
:100D3C001A605A609A60DA601A610223BB6101235F
:100D4C00BB621023FB6200237B6307F11803184678
:100D5C0000F014FD0346002B01D000F0BBF80F236C
:100D6C007B600023BB600023FB6000233B610023FE
:100D7C007B613B1D0021184600F080FF0346002BD1
:100D8C0001D000F0A7F800BF4037BD4680BD000081
:100D9C0080B586B000AF07F1080300221A605A60D4
:100DAC009A60DA603B4600221A605A601D4B4FF085
:100DBC0080421A601B4B41F63F725A60194B00225D
:100DCC009A60184B0922DA60164B00221A61154BF7
:100DDC0000229A61134801F0B9F80346002B01D0A8
:100DEC0000F078F84FF48053BB6007F10803194604
:100DFC000C4801F04FFA0346002B01D000F06AF8C2
:100E0C0000233B6000237B603B461946054801F0FC
:100E1C0017FC0346002B01D000F05CF800BF18371C
:100E2C00BD4680BD7800002080B586B000AF07F1CC
:100E3C00080300221A605A609A60DA60224B9B69A0
:100E4C00214A43F0040393611F4B9B6903F0040395
:100E5C007B607B681C4B9B691B4A43F008039361C6
:100E6C00194B9B6903F008033B603B68002240F27E
:100E7C00FE71164800F051FC002240F2FF3114487C
:100E8C0000F04BFC40F2FE73BB600123FB600023BF
:100E9C003B6102237B6107F1080319460B4800F004
:100EAC00ABFA40F2FF33BB600123FB6000233B61D4
:100EBC0002237B6107F108031946054800F09CFAF0
:100ECC0000BF1837BD4680BD00100240000801402D
:100EDC00000C014080B400AF72B600BFFEE700000A
:100EEC0080B485B000AF154B9B69144A43F00103E5
:100EFC009361124B9B6903F00103BB60BB680F4B02
:100F0C00DB690E4A43F08053D3610C4BDB6903F071
:100F1C0080537B607B680A4B5B68FB60FB6823F04B
:100F2C00E063FB60FB6843F08063FB60044AFB6892
:100F3C00536000BF1437BD4680BC704700100240A0
:100F4C000000014080B584B000AF78607B681B68FE
:100F5C00B3F1804F13D10C4BDB690B4A43F0010307
:100F6C00D361094BDB6903F00103FB60FB680022D2
:100F7C0000211C2000F009FA1C2000F022FA00BF0E
:100F8C001037BD4680BD00BF0010024080B400AFDA
:100F9C00FEE780B400AFFEE780B400AFFEE780B49C
:100FAC0000AFFEE780B400AFFEE780B400AF00BF37
:100FBC00BD4680BC704780B400AF00BFBD4680BC4E
:100FCC00704780B400AF00BFBD4680BC704780B591
:100FDC0000AF00F0E7F800BF80BD000080B500AFA7
:100FEC00024801F04FF800BF80BD00BF7800002020
:100FFC0080B400AF00BFBD4680BC704780B483B0E6
:10100C0000AF03460A46FB711346BB80FB79042BE9
:10101C000ED8FB79BA880949A1FB0212D20891B209
:10102C00074A22F81310FB79064A0021D15400E03C
:10103C0000BF0C37BD4680BC704700BFCDCCCCCCBC
:10104C006C000020C000002080B483B000AF0023EF
:10105C00FB711BE0FB79124A32F81330002B12D0D3
:10106C00FB790F4A32F81320013A91B20C4A22F85C
:10107C001310FB790A4A32F81330002B03D1FB7999
:10108C00084A0121D154FB790133FB71FB79042B04
:10109C00E0D900BF00BF0C37BD4680BC704700BF15
:1010AC006C000020C000002080B582B000AF7860DA
:1010BC007B681B68B3F1804F03D1FFF76BF8FFF728
:1010CC00C3FF00BF0837BD4680BD00000C480D496A
:1010DC000D4A002302E0D458C4500433C4188C4287
:1010EC00F9D30A4A0A4C002301E013600432A242ED
:1010FC00FBD3FFF77DFF01F00DFBFFF7F1FD704710
:10110C000000002018000020B8270008180000205C
:10111C00CC000020FEE7000080B500AF084B1B6838
:10112C00074A43F010031360032000F023F90F204B
:10113C0000F008F8FFF7D4FE0023184680BD00BF6E
:10114C000020024080B582B000AF7860124B1A6864
:10115C00124B1B7819464FF47A73B3FBF1F3B2FBC5
:10116C00F3F3184600F03BF90346002B01D00123A2
:10117C000EE07B680F2B0AD8002279684FF0FF3005
:10118C0000F003F9064A7B681360002300E001239A
:10119C0018460837BD4680BD0C0000201400002006
:1011AC001000002080B400AF054B1B781A46054B8D
:1011BC001B681344034A136000BFBD4680BC7047D4
:1011CC0014000020C800002080B400AF024B1B6844
:1011DC001846BD4680BC7047C800002080B485B05E
:1011EC0000AF78607B6803F00703FB600C4BDB6897
:1011FC00BB60BA684FF6FF031340BB60FB681A0272
:10120C00BB68134343F0BF6343F40033BB60044A31
:10121C00BB68D36000BF1437BD4680BC704700BFAD
:10122C0000ED00E080B400AF044BDB681B0A03F058
:10123C0007031846BD4680BC704700BF00ED00E0B8
:10124C0080B483B000AF0346FB7197F90730002BD5
:10125C000BDBFB7903F01F02064997F907305B099A
:10126C00012000FA02F241F8232000BF0C37BD46E2
:10127C0080BC704700E100E080B483B000AF03464F
:10128C003960FB7197F90730002B0ADB3B68DAB247
:10129C000C4997F907301201D2B20B4483F80023A2
:1012AC000AE03B68DAB20849FB7903F00F03043B10
:1012BC001201D2B20B441A7600BF0C37BD4680BC6B
:1012CC00704700BF00E100E000ED00E080B489B0A1
:1012DC0000AFF860B9607A60FB6803F00703FB614C
:1012EC00FB69C3F10703042B28BF0423BB61FB6913
:1012FC000433062B02D9FB69033B00E000237B611E
:10130C004FF0FF32BB6902FA03F3DA43BB681A40B1
:10131C007B699A404FF0FF317B6901FA03F3D943A3
:10132C007B680B40134318462437BD4680BC70477E
:10133C0080B582B000AF78607B68013BB3F1807FF1
:10134C0001D301230FE00A4A7B68013B53600F2154
:10135C004FF0FF30FFF790FF054B00229A60044BD3
:10136C0007221A60002318460837BD4680BD00BF0F
:10137C0010E000E080B582B000AF78607868FFF7CD
:10138C002DFF00BF0837BD4680BD80B586B000AFCD
:10139C000346B9607A60FB7300237B61FFF742FF61
:1013AC0078617A68B9687869FFF790FF024697F917
:1013BC000F3011461846FFF75FFF00BF1837BD46C8
:1013CC0080BD80B582B000AF0346FB7197F9073042
:1013DC001846FFF735FF00BF0837BD4680BD80B506
:1013EC0082B000AF78607868FFF7A2FF034618461A
:1013FC000837BD4680BD000080B48BB000AF78606C
:10140C00396000237B6200233B6248E101227B6A46
:10141C0002FA03F3FB613B681B68FA691340BB617A
:10142C00BA69FB699A4240F037813B685B68A34A12
:10143C0093425ED0A14A934275D8A14A934258D0A8
:10144C009F4A93426FD89F4A934252D09D4A9342EF
:10145C0069D89D4A93424CD09B4A934263D89B4A8D
:10146C00934246D0994A93425DD8122B2AD8122B1C
:10147C0059D801A252F823F0FF140008D91400081F
:10148C00EB1400082D15000833150008331500085F
:10149C003315000833150008331500083315000800
:1014AC0033150008331500083315000833150008F0
:1014BC00331500083315000833150008E114000833
:1014CC00F5140008824A934213D02CE03B68DB6889
:1014DC003B6229E03B68DB6804333B6224E03B68F9
:1014EC00DB6808333B621FE03B68DB680C333B6214
:1014FC001AE03B689B68002B02D104233B6213E08B
:10150C003B689B68012B05D108233B627B68FA6919
:10151C001A6109E008233B627B68FA695A6103E0AF
:10152C0000233B6200E000BFBB69FF2B01D87B6846
:10153C0001E07B6804337B61BB69FF2B02D87B6ABB
:10154C009B0002E07B6A083B9B003B617B691A684D
:10155C000F213B6901FA03F3DB431A40396A3B69FB
:10156C0001FA03F31A437B691A603B685B6803F06A
:10157C008053002B00F09080564B9B69554A43F0EA
:10158C0001039361534B9B6903F00103BB60BB6880
:10159C00514A7B6A9B08023352F82330FB607B6A0A
:1015AC0003F003039B000F2202FA03F3DB43FA68F8
:1015BC001340FB607B68494A93420DD07B68484AD4
:1015CC00934207D07B68474A934201D1022304E03F
:1015DC00032302E0012300E000237A6A02F00302F5
:1015EC0092009340FA681343FB603B497B6A9B086B
:1015FC000233FA6841F823203B685B6803F48033BC
:10160C00002B06D0384B1A683749BB6913430B6063
:10161C0006E0354B1A68BB69DB43334913400B605A
:10162C003B685B6803F40033002B06D02E4B5A68E2
:10163C002D49BB6913434B6006E02B4B5A68BB69C1
:10164C00DB43294913404B603B685B6803F4801310
:10165C00002B06D0244B9A682349BB6913438B603B
:10166C0006E0214B9A68BB69DB431F4913408B6032
:10167C003B685B6803F40013002B06D01A4BDA6846
:10168C001949BB691343CB6006E0174BDA68BB6999
:10169C00DB4315491340CB607B6A01337B623B68AB
:1016AC001A687B6A22FA03F3002B7FF4AFAE00BFFB
:1016BC0000BF2C37BD4680BC704700BF0000321005
:1016CC000000311000002210000021100000121048
:1016DC000000111000100240000001400008014001
:1016EC00000C0140001001400004014080B485B0A2
:1016FC0000AF78600B467B807B689A687B881340D0
:10170C00002B02D00123FB7301E00023FB73FB7B56
:10171C0018461437BD4680BC704780B483B000AF08
:10172C0078600B467B8013467B707B78002B03D054
:10173C007A887B681A6103E07B881A047B681A61DB
:10174C0000BF0C37BD4680BC704780B485B000AF7D
:10175C0078600B467B807B68DB68FB607A88FB6873
:10176C0013401A04FB68D9437B880B401A437B68EF
:10177C001A6100BF1437BD4680BC704780B586B077
:10178C0000AF78607B68002B01D101236CE27B6891
:10179C001B6803F00103002B00F08780924B5B6801
:1017AC0003F00C03042B0CD08F4B5B6803F00C0381
:1017BC00082B12D18C4B5B6803F48033B3F5803F5C
:1017CC000BD1894B1B6803F40033002B6CD07B6866
:1017DC005B68002B68D1012346E27B685B68B3F53C
:1017EC00803F06D1804B1B687F4A43F480331360E3
:1017FC002EE07B685B68002B0CD17B4B1B687A4A14
:10180C0023F480331360784B1B68774A23F48023CE
:10181C0013601DE07B685B68B3F5A02F0CD1724B95
:10182C001B68714A43F4802313606F4B1B686E4A2C
:10183C0043F4803313600BE06B4B1B686A4A23F450
:10184C0080331360684B1B68674A23F48023136052
:10185C007B685B68002B13D0FFF7B6FC386108E09F
:10186C00FFF7B2FC02463B69D31A642B01D9032360
:10187C00FAE15D4B1B6803F40033002BF0D014E04D
:10188C00FFF7A2FC386108E0FFF79EFC02463B69BB
:10189C00D31A642B01D90323E6E1534B1B6803F4E1
:1018AC000033002BF0D100E000BF7B681B6803F015
:1018BC000203002B63D04C4B5B6803F00C03002B32
:1018CC000BD0494B5B6803F00C03082B1CD1464B27
:1018DC005B6803F48033002B16D1434B1B6803F079
:1018EC000203002B05D07B681B69012B01D001235F
:1018FC00BAE13D4B1B6823F0F8027B685B69DB00A7
:10190C00394913430B603AE07B681B69002B20D0EC
:10191C00364B01221A60FFF757FC386108E0FFF7DD
:10192C0053FC02463B69D31A022B01D903239BE1DA
:10193C002D4B1B6803F00203002BF0D02A4B1B68C5
:10194C0023F0F8027B685B69DB00274913430B60CB
:10195C0015E0264B00221A60FFF736FC386108E0D0
:10196C00FFF732FC02463B69D31A022B01D9032341
:10197C007AE11D4B1B6803F00203002BF0D17B684E
:10198C001B6803F00803002B3AD07B689B69002B83
:10199C0019D0174B01221A60FFF716FC386108E0CA
:1019AC00FFF712FC02463B69D31A022B01D9032321
:1019BC005AE10D4B5B6A03F00203002BF0D00120BF
:1019CC0000F0A6FA1CE00A4B00221A60FFF7FCFBA1
:1019DC0038610FE0FFF7F8FB02463B69D31A022B84
:1019EC0008D9032340E100BF00100240000042422E
:1019FC00800442429E4B5B6A03F00203002BE9D148
:101A0C007B681B6803F00403002B00F0A680002306
:101A1C00FB75974BDB6903F08053002B0DD1944B76
:101A2C00DB69934A43F08053D361914BDB6903F03C
:101A3C008053BB60BB680123FB758E4B1B6803F4A2
:101A4C008073002B18D18B4B1B688A4A43F480732C
:101A5C001360FFF7B9FB386108E0FFF7B5FB0246EE
:101A6C003B69D31A642B01D90323FDE0814B1B681E
:101A7C0003F48073002BF0D07B68DB68012B06D15C
:101A8C007B4B1B6A7A4A43F0010313622DE07B689F
:101A9C00DB68002B0CD1764B1B6A754A23F00103D3
:101AAC001362734B1B6A724A23F0040313621CE02B
:101ABC007B68DB68052B0CD16D4B1B6A6C4A43F0C1
:101ACC00040313626A4B1B6A694A43F001031362F5
:101ADC000BE0674B1B6A664A23F001031362644BED
:101AEC001B6A634A23F0040313627B68DB68002BD8
:101AFC0015D0FFF769FB38610AE0FFF765FB02467A
:101B0C003B69D31A41F28832934201D90323ABE0EB
:101B1C00574B1B6A03F00203002BEED014E0FFF7C7
:101B2C0053FB38610AE0FFF74FFB02463B69D31ABF
:101B3C0041F28832934201D9032395E04C4B1B6A46
:101B4C0003F00203002BEED1FB7D012B05D1484B9A
:101B5C00DB69474A23F08053D3617B68DB69002B38
:101B6C0000F08180424B5B6803F00C03082B61D0C2
:101B7C007B68DB69022B46D13F4B00221A60FFF7D2
:101B8C0023FB386108E0FFF71FFB02463B69D31AC1
:101B9C00022B01D9032367E0354B1B6803F000735C
:101BAC00002BF0D17B681B6AB3F5803F08D1304B1A
:101BBC005B6823F400327B689B682D4913434B60B0
:101BCC002B4B5B6823F474127B68196A7B685B6A25
:101BDC000B43274913434B60274B01221A60FFF735
:101BEC00F3FA386108E0FFF7EFFA02463B69D31AC3
:101BFC00022B01D9032337E01D4B1B6803F0007344
:101C0C00002BF0D02FE01C4B00221A60FFF7DCFAFF
:101C1C00386108E0FFF7D8FA02463B69D31A022B69
:101C2C0001D9032320E0124B1B6803F00073002B37
:101C3C00F0D118E07B68DB69012B01D1012313E0A3
:101C4C000B4B5B68FB60FB6803F480327B681B6AA0
:101C5C009A4206D1FB6803F470127B685B6A9A4265
:101C6C0001D0012300E0002318461837BD4680BD83
:101C7C0000100240007000406000424280B584B009
:101C8C0000AF786039607B68002B01D10123D0E074
:101C9C006A4B1B6803F007033A689A4210D9674BEA
:101CAC001B6823F0070265493B6813430B60634BC9
:101CBC001B6803F007033A689A4201D00123B8E08D
:101CCC007B681B6803F00203002B20D07B681B6829
:101CDC0003F00403002B05D0594B5B68584A43F4BE
:101CEC00E06353607B681B6803F00803002B05D08E
:101CFC00534B5B68524A43F460535360504B5B68E0
:101D0C0023F0F0027B689B684D4913434B607B6862
:101D1C001B6803F00103002B40D07B685B68012B30
:101D2C0007D1474B1B6803F40033002B15D101235B
:101D3C007FE07B685B68022B07D1414B1B6803F08B
:101D4C000073002B09D1012373E03D4B1B6803F09A
:101D5C000203002B01D101236BE0394B5B6823F0AC
:101D6C0003027B685B68364913434B60FFF72CFA20
:101D7C00F8600AE0FFF728FA0246FB68D31A41F232
:101D8C008832934201D9032353E02D4B5B6803F057
:101D9C000C027B685B689B009A42EBD1274B1B685B
:101DAC0003F007033A689A4210D2244B1B6823F0C5
:101DBC00070222493B6813430B60204B1B6803F05E
:101DCC0007033A689A4201D0012332E07B681B6812
:101DDC0003F00403002B08D0194B5B6823F4E0627A
:101DEC007B68DB68164913434B607B681B6803F008
:101DFC000803002B09D0124B5B6823F460527B68FC
:101E0C001B69DB000E4913434B6000F021F80246BE
:101E1C000B4B5B681B0903F00F030A49CB5C22FADE
:101E2C0003F3094A1360094B1B681846FFF78AF93C
:101E3C00002318461037BD4680BD00BF002002406D
:101E4C0000100240A02700080C0000201000002009
:101E5C0090B48AB000AF2A4B3C1D0FCB84E80F0026
:101E6C0040F201233B800023FB610023BB61002374
:101E7C007B6200237B6100233B62224B5B68FB612E
:101E8C00FB6903F00C03042B02D0082B03D02DE0CC
:101E9C001D4B3B622DE0FB699B0C03F00F0307F11C
:101EAC002802134413F8243C7B61FB6903F4803350
:101EBC00002B13D0134B5B685B0C03F0010307F191
:101ECC002802134413F8283CBB617B690E4A02FBC1
:101EDC0003F2BB69B2FBF3F37B6204E07B690B4A50
:101EEC0002FB03F37B627B6A3B6202E0064B3B62C4
:101EFC0000BF3B6A18462837BD4690BC704700BFF0
:101F0C00902700080010024000127A0000093D00E2
:101F1C0080B485B000AF78600A4B1B680A4AA2FBFC
:101F2C0003235B0A7A6802FB03F3FB6000BFFB68C8
:101F3C005A1EFA60002BF9D100BF00BF1437BD4602
:101F4C0080BC70470C000020D34D621080B582B06D
:101F5C0000AF78607B68002B01D1012341E07B68E6
:101F6C0093F83D30DBB2002B06D17B68002283F85E
:101F7C003C207868FEF7E6FF7B68022283F83D2060
:101F8C007B681A687B6804331946104600F06AFABD
:101F9C007B68012283F846207B68012283F83E206F
:101FAC007B68012283F83F207B68012283F8402064
:101FBC007B68012283F841207B68012283F8422050
:101FCC007B68012283F843207B68012283F844203C
:101FDC007B68012283F845207B68012283F83D2031
:101FEC00002318460837BD4680BD000080B485B07C
:101FFC0000AF78607B6893F83D30DBB2012B01D0E9
:10200C00012335E07B68022283F83D207B681B6846
:10201C00DA687B681B6842F00102DA607B681B6837
:10202C00164A934209D07B681B68B3F1804F04D0E9
:10203C007B681B68124A934211D17B681B689B68B2
:10204C0003F00703FB60FB68062B10D07B681B6852
:10205C001A687B681B6842F001021A6007E07B6813
:10206C001B681A687B681B6842F001021A60002327
:10207C0018461437BD4680BC704700BF002C014089
:10208C000004004080B582B000AF78607B681B68AC
:10209C001B6903F00203022B22D17B681B68DB68EF
:1020AC0003F00203022B1BD17B681B686FF002024A
:1020BC001A617B6801221A777B681B689B6903F0A5
:1020CC000303002B03D0786800F0B1F905E07868C1
:1020DC0000F0A4F9786800F0B3F97B6800221A7755
:1020EC007B681B681B6903F00403042B22D17B68FB
:1020FC001B68DB6803F00403042B1BD17B681B6893
:10210C006FF004021A617B6802221A777B681B68E5
:10211C009B6903F44073002B03D0786800F087F9B7
:10212C0005E0786800F07AF9786800F089F97B6846
:10213C0000221A777B681B681B6903F00803082BC5
:10214C0022D17B681B68DB6803F00803082B1BD1CA
:10215C007B681B686FF008021A617B6804221A778F
:10216C007B681B68DB6903F00303002B03D07868E2
:10217C0000F05DF905E0786800F050F9786800F03F
:10218C005FF97B6800221A777B681B681B6903F078
:10219C001003102B22D17B681B68DB6803F0100343
:1021AC00102B1BD17B681B686FF010021A617B68C7
:1021BC0008221A777B681B68DB6903F44073002BD9
:1021CC0003D0786800F033F905E0786800F026F960
:1021DC00786800F035F97B6800221A777B681B68F9
:1021EC001B6903F00103012B0ED17B681B68DB68B4
:1021FC0003F00103012B07D17B681B686FF0010210
:10220C001A617868FEF750FF7B681B681B6903F046
:10221C008003802B0ED17B681B68DB6803F0800386
:10222C00802B07D17B681B686FF080021A6178687D
:10223C0000F067FA7B681B681B6903F04003402BB6
:10224C000ED17B681B68DB6803F04003402B07D181
:10225C007B681B686FF040021A61786800F0F9F82F
:10226C007B681B681B6903F02003202B0ED17B6855
:10227C001B68DB6803F02003202B07D17B681B68ED
:10228C006FF020021A61786800F032FA00BF08374C
:10229C00BD4680BD80B584B000AF786039607B6886
:1022AC0093F83C30012B01D10223B3E07B6801226F
:1022BC0083F83C207B68022283F83D207B681B68F6
:1022CC009B68FB60FB6823F07703FB60FB6823F4DF
:1022DC007F43FB607B681B68FA689A603B681B68ED
:1022EC00B3F5005F3ED0B3F5005F00F28780B3F525
:1022FC00805F00F08580B3F5805F7FD8702B1AD09B
:10230C00702B7BD8602B50D0602B77D8502B3CD0C7
:10231C00502B73D8402B58D0402B6FD8302B64D017
:10232C00302B6BD8202B60D0202B67D8002B5CD0A7
:10233C00102B5AD062E07B6818683B6899683B6840
:10234C005A683B68DB6800F05CF97B681B689B682B
:10235C00FB60FB6843F07703FB607B681B68FA68E3
:10236C009A604EE07B6818683B6899683B685A68CD
:10237C003B68DB6800F045F97B681B689A687B68F2
:10238C001B6842F480429A603BE07B6818683B68AB
:10239C0059683B68DB681A4600F0BCF87B681B6820
:1023AC005021184600F013F92BE07B6818683B6845
:1023BC0059683B68DB681A4600F0DAF87B681B68E2
:1023CC006021184600F003F91BE07B6818683B6835
:1023DC0059683B68DB681A4600F09CF87B681B6800
:1023EC004021184600F0F3F80BE07B681A683B6854
:1023FC001B681946104600F0EAF802E000BF00E046
:10240C0000BF7B68012283F83D207B68002283F8A3
:10241C003C20002318461037BD4680BD80B483B0E5
:10242C0000AF786000BF0C37BD4680BC704780B4ED
:10243C0083B000AF786000BF0C37BD4680BC7047DE
:10244C0080B483B000AF786000BF0C37BD4680BC51
:10245C00704780B483B000AF786000BF0C37BD46C6
:10246C0080BC704780B485B000AF786039607B6801
:10247C001B68FB607B68254A934207D07B68B3F1ED
:10248C00804F03D07B68224A934208D1FB6823F02B
:10249C007003FB603B685B68FA681343FB607B6806
:1024AC001A4A934207D07B68B3F1804F03D07B6804
:1024BC00174A934208D1FB6823F44073FB603B68D6
:1024CC00DB68FA681343FB60FB6823F080023B680F
:1024DC005B691343FB607B68FA681A603B689A6817
:1024EC007B68DA623B681A687B689A627B68074A89
:1024FC00934203D13B681A697B681A637B6801229B
:10250C005A6100BF1437BD4680BC7047002C014097
:10251C000004004080B487B000AFF860B9607A6006
:10252C00FB681B6A7B61FB681B6A23F00102FB687A
:10253C001A62FB689B693B613B6923F0F0033B61CA
:10254C007B681B013A6913433B617B6923F00A03E7
:10255C007B617A69BB6813437B61FB683A699A615A
:10256C00FB687A691A6200BF1C37BD4680BC704795
:10257C0080B487B000AFF860B9607A60FB681B6A02
:10258C0023F01002FB681A62FB689B697B61FB6895
:10259C001B6A3B617B6923F470437B617B681B0383
:1025AC007A6913437B613B6923F0A0033B61BB68F1
:1025BC001B013A6913433B61FB687A699A61FB68BA
:1025CC003A691A6200BF1C37BD4680BC704780B4A4
:1025DC0085B000AF786039607B689B68FB60FB68F6
:1025EC0023F07003FB603A68FB68134343F0070366
:1025FC00FB607B68FA689A6000BF1437BD4680BCEC
:10260C00704780B487B000AFF860B9607A603B6007
:10261C00FB689B687B617B6923F47F437B613B6830
:10262C001A027B681A43BB6813437A6913437B61B4
:10263C00FB687A699A6000BF1C37BD4680BC704746
:10264C0080B485B000AF786039607B6893F83C301B
:10265C00012B01D1022341E07B68012283F83C204D
:10266C007B68022283F83D207B681B685B68FB60FB
:10267C007B681B689B68BB60FB6823F07003FB6086
:10268C003B681B68FA681343FB607B681B68FA683D
:10269C005A607B681B68144A934209D07B681B689C
:1026AC00B3F1804F04D07B681B68104A93420CD165
:1026BC00BB6823F08003BB603B685B68BA6813435C
:1026CC00BB607B681B68BA689A607B68012283F8E0
:1026DC003D207B68002283F83C20002318461437E9
:1026EC00BD4680BC704700BF002C01400004004078
:1026FC0080B483B000AF786000BF0C37BD4680BC9F
:10270C00704780B483B000AF786000BF0C37BD4613
:10271C0080BC704770B500260C4D0D4C641BA4108A
:10272C00A64209D100F022F800260A4D0A4C641B7F
:10273C00A410A64205D170BD55F8043B984701364C
:10274C00EEE755F8043B98470136F2E7B02700084E
:10275C00B0270008B0270008B4270008034602443D
:10276C00934200D1704703F8011BF9E7F8B500BF9D
:10277C00F8BC08BC9E467047F8B500BFF8BC08BC56
:04278C009E467047AE
:1027900002030405060708090A0B0C0D0E0F1010A2
:1027A0000000000000000000010203040607080901
:0427B00031010008EB
:0427B4000D0100080B
:1027B800014F12064C24200F000400000024F400EE
:0827C8001000000001000000F8
:04000005080010D906
:00000001FF
